:020000040000FA
:060000006BEF01F012009D
:020006001200E6
:0600080056EF00F01200AB
:02000E000100EF
:0C001000F2020000000F000028000000B9
:04001C00D9CFE6FF53
:10002000E1CFD9FF040EE126DE6ADD6A020EDB6A4B
:10003000030EDB6ADE6ADD6ADECF00F0DDCF01F0A1
:10004000FD0EDBCF02F0FE0EDBCF03F00250005CB2
:100050000350015821E2020EDB6A030EDB6A020E36
:10006000DBCF00F0030EDBCF01F0026A036A530E10
:10007000005C000E0158000E0258000E035807E203
:100080000000020EDB2A030E01E3DB2AE8D7DF2A99
:10009000010E01E3DB2AD0D7040EE15C02E2E16A43
:1000A000E552E16EE552E7CFD9FF1200DACFE4FF67
:1000B000E2CFDAFFE9CFE4FFEACFE4FFE6529D505A
:1000C000020B1AE09E50020B17E00F01E80E005DD4
:1000D000030E01590CE20251005D0351015902E285
:1000E0008B8601D08B96002B000E012302D0006B73
:1000F000016BCD0ECC6E9E929E50200B18E09D5051
:10010000200B15E00F012651EA6A060FE96E0F0E6B
:10011000EA22AFCFEFFF2651EA6A060FE96E0F0E13
:10012000EA22EF500A0802E1010E276F262BE55262
:10013000E5CFEAFFE5CFE9FFE5CFDAFF11009496BE
:10014000C088C168C268C098CA84CD0ECC6E200E2B
:10015000AD6E900EAC6E0F0EB06E9E929D8A9D821B
:100160009D8AF28EF28C1200D9CFE6FFE1CFD9FF43
:10017000E652DF6AE4DF4B0E0F01026F036B27517B
:1001800001E1FDD720D8DF6E0F01276B266BDFCF93
:1001900000F0016A00BE0168FF0E001801E1015085
:1001A0000CE0DF28E96EEA6AE9BEEA68060EE92695
:1001B0000F0EEA22EF50026F036BE1D7E552E552D2
:1001C000E7CFD9FF1200D9CFE6FFE1CFD9FFE65242
:1001D000DF6ADFCF00F0200EE76E0018E8AE02D035
:1001E000E73402D0E750005C10E2DFCFE9FFEA6AB3
:1001F000E9BEEA68060EE9260F0EEA22EF50400833
:1002000002E1DF5004D0DF2AE4D7FF0E00D0E55230
:08021000E552E7CFD9FF12000F
:080218000E0EF66E000EF76EEB
:10022000000EF86E0F010900F5502D6F0900F55012
:100230002E6F03E12D6701D03DD00900F550286FE6
:100240000900F550296F0900F5502A6F09000900CF
:10025000F550E96E0900F550EA6E09000900090041
:10026000F5502B6F0900F5502C6F09000900F6CFEF
:100270002FFFF7CF30FFF8CF31FF28CFF6FF29CF80
:10028000F7FF2ACFF8FF0F012B5302E12C5307E0B1
:100290000900F550EE6E2B07F8E22C07F9D72FCFA7
:1002A000F6FF30CFF7FF31CFF8FF0F012D07000E1B
:0602B0002E5BBFD7120017
:0A02B600400EF36E00EE00F00F0E94
:1002C00001D81200EA6002D0EE6AFCD7F350E96070
:0602D0001200EE6AFCD7EB
:0A02D6001EEE00F02EEE00F0F86AB4
:1002E000059C0CEC01F003EC00F0B4EC00F0FBD743
:0202F0001200FA
:0E02F2000000000000000000000000000000FE
:1003000000000000000000000000000000000000ED
:0A03100000000000000000000000E3
:020000040001F9
:01FFF800A068
:01FFF900F710
:01FFFA00C442
:00000001FF
